:020000040000FA
:040000008831C82A51
:040008008831DF2A32
:02000E00E2010D
:10001000E301E401E501E601DF1F1A28E217DE092A
:10002000DF09E009E109DE0A0319DF0A0319E00A22
:100030000319E10AE21A38285E1C2C285A08E30743
:100040005B0803185B0FE4075C0803185C0FE50707
:100050005D0803185D0FE6070310E10CE00CDF0CF0
:10006000DE0C0310DA0DDB0DDC0DDD0DE20A1A28C3
:10007000E21F0800E309E409E509E609E30A0319B8
:10008000E40A0319E50A0319E60A0800D301D401BA
:10009000D501D601D901DA01DB01DC01D70120301D
:1000A0005705D800D808031D0800D935DA0DDB0D37
:1000B000DC0DC90DCA0DCB0DCC0DD30DD40DD50D56
:1000C000D60D50085602031D6F284F085502031D18
:1000D0006F284E085402031D6F284D085302031C5D
:1000E00080284D08D3024E08031C4E0FD4024F083F
:1000F000031C4F0FD5025008031C500FD602591491
:10010000D70A4F286C0885006B0A8400000822007B
:10011000CD00840A2100ED0140302200C9004230A8
:10012000CA000F30CB000030CC000008CE00CF0159
:10013000801BCF03D001801BD003801FAC28CD09CA
:10014000CE09CF09D009CD0A0319CE0A0319CF0A67
:100150000319D00A2100ED0A220046205908A00008
:100160005A08A1005B08A2005C08A30021006D1CD6
:10017000C5282200A009A109A209A309A00A031900
:10018000A10A0319A20A0319A30A21006C08850019
:100190006B0884000C3084078008031DC5286C0898
:1001A00085006B088400033084070008EE00840A91
:1001B0000008803AED0080306D02031DE128FA301E
:1001C0006E02031C01296C0885006B0884000D3049
:1001D0008407840A220020082100ED002200210863
:1001E0008000840321006D0880006B0884000F30BC
:1001F0008407840A0030ED00800184036D088000CC
:1002000061296C0885006B088400033084070008AE
:100210002200DE00840A2008DA002108DB00220820
:10022000DC002308DD000008DF00E001801BE003A4
:10023000E101801BE103072063082100ED0022009B
:1002400064082100EF0022006508A500660821006F
:10025000EE006C0885006B0884000D308407840A6A
:10026000220025088000840321006F0880006B08AD
:1002700084000D30840700082200A400840A0008CE
:10028000A500A601A701240820022100EF002200FA
:1002900021082100EE002200250803185229250F0D
:1002A000522954292100EE0221006C0885006B08B8
:1002B00084000F308407840A6E08800084036F086E
:1002C00080006C0885006B0884000C3084070130C6
:1002D00080000800CB01CC01CD01CE01C501C601D3
:1002E000C701C801C90120304905CA00CA08031D59
:1002F0000800C535C60DC70DC80DBC0DBD0DBE0D22
:10030000BF0DCB0DCC0DCD0DCE0D43084E02031D00
:10031000932942084D02031D932941084C02031DF5
:10032000932940084B02031CA4294008CB02410832
:10033000031C410FCC024208031C420FCD024308AC
:10034000031C430FCE024514C90A7329E201E301DD
:10035000E401E501E601E21A0800561CBD29520835
:10036000E30753080318530FE40754080318540F06
:10037000E50755080318550FE6070310D90CD80CEC
:10038000D70CD60C0310D20DD30DD40DD50DE20A27
:10039000AB2967088500660884000C308407800854
:1003A000031DC9296708850066088400FF308000A6
:1003B0000D308407840A0030E80080018403680857
:1003C0008000660884000F308407840AE830E80063
:1003D00003308000840368088000660884000C30C5
:1003E00084070130800008006708850066088400E3
:1003F0006A088000840A840A6808EB0069088000A3
:1004000084036B0880006608EB006708EC0082201C
:1004100008001030A3001130A5001230A7001330DF
:10042000A9001430AB001530AD001730AF00183004
:10043000B1001930B3001B30B5001D30B7001E30BD
:10044000B9002030AE002330B6005330A4005A303B
:10045000A2005B30A6007230A8008030B000B4006B
:100460009A30AA00D430AC00DE30B800F530B200CB
:1004700021006E08003C031D472A6D08003C031D47
:10048000472A6C08003C031D472A6B08773CEE1B8B
:10049000031403186C2A0C30EB0200302200C50054
:1004A0000318552A450F552A572A2100EC0200301F
:1004B0002200C50003185F2A450F5F2A612A210028
:1004C000ED0200302200C5000318692A450F692A91
:1004D000382A2100EE02382A0315031D752A031558
:1004E000031D752A031503197A2AEB01EC01ED01AE
:1004F000EE01862A0830FF390319862AEB35EC0D08
:10050000ED0DEE0D0318EE17FF3E7B2A22002008AA
:10051000C5002108C600C701C801A11F912AC70351
:10052000C80345082100EB07220046082100EC3DE6
:10053000220047082100ED3D220048082100EE3D41
:100540006B082200C500003021006C052200C600A7
:100550004508A0004608A100003000380038FF39E7
:100560000319C12A21006E0DEB01EC01ED01EE0132
:100570000318EB030318EC030318ED030318EE0351
:10058000C42A0830C500C5080319CF2A21006E0D02
:10059000EE0CED0CEC0CEB0C2200C503C42A013070
:1005A00085002230840021006B082200BC0021005D
:1005B0006C082200BD0021006D082200BE00210051
:1005C0006E082200BF002100EE1FF22A2200BC09A3
:1005D000BD09BE09BF09BC0A0319BD0A0319BE0A39
:1005E0000319BF0A0C302200C000C101C201C301BF
:1005F0006A214B082100EF00EE1F002BEF09EF0AE4
:1006000003106F0D840700082200BA00840A000856
:10061000BB003A08D2003B08D300D401D501BB1F70
:10062000132BD403D503F430D600D701D801D90158
:10063000A6216308DA006408DB006508DC006608B0
:10064000DD002008DE002108DF00E001A11BE0033F
:10065000E101A11BE10307206308C9006408CA0087
:100660006508CB006608D100D2015108CC00D11F2B
:10067000452BC909CA09CB09CC09C90A0319CA0AF9
:100680000319CB0A0319CC0AD20A0030CD00CE00E0
:10069000D0001030CF0046205908C5005A08C600C7
:1006A000521C572BC509C609C50A0319C60A4508B5
:1006B000BA074608BB3DD10121006B082200C900E2
:1006C00021006C082200CA0021006D082200CB0026
:1006D00021006E082200CC002100EE1F7C2B22009E
:1006E000C909CA09CB09CC09C90A0319CA0A0319DD
:1006F000CB0A0319CC0AD10A0C302200CD00CE015E
:10070000CF01D00146205908C5005A08C6005B0831
:10071000C7005C08C800511C982BC509C609C70949
:10072000C809C50A0319C60A0319C70A0319C80A62
:100730004508093CC4003A08C5003B08C600C40887
:10074000031908003B0DC60CC50CC403A02BE8011F
:1007500066088500650884000008E900840A6908C5
:10076000680200080318031D801BF92B660885002A
:10077000650884000230840768088407670800065B
:10078000031DF72B66088500650884000008E90052
:10079000840AE90803198003E903840369088000D7
:1007A00066088500650884000008E900840A690875
:1007B000680200080318031D801BF42B66088500DF
:1007C0006508840002308407680AE9006908840724
:1007D0000008EA006508840002308407680884077E
:1007E0006A088000E80AD02B0130E9000800E80A16
:1007F000A82BE9010800650A031D042C6308E60024
:100800006408E700C92108006308E6006408E700FF
:100810006508EB00EC01ED01EE017A082200A00072
:100820007B08A100092245082100E80022004608B3
:100830002100E9006508EA00F4210800600885004D
:100840005F08840003308407840A6108E3006208BB
:1008500080008403630880005F08EB006008EC0000
:10086000822008005D08E1005E08E2006008003CAC
:100870000318452C6208850061088400E10A031909
:10088000E20A5F088000E003362C5D08E3005E08A2
:10089000E400080066088500650884000008E90097
:1008A000840A6908003C00080318031D801B642C9F
:1008B0006608850065088400023084070008670622
:1008C000031D642CE9010800E8016608850065083D
:1008D00084000008EA00840A6A0868020008031815
:1008E000031D801BA62C6608850065088400023065
:1008F00084076808840767080006031DA42C68089D
:10090000003C0318992C66088500650884000230B5
:1009100084076803EA006A0884070008EB0065089A
:10092000840002308407680884076B088000E803AD
:100930007F2C6608850065088400023084076708FC
:1009400080000130E9000800E80A652C660885008F
:10095000650884000008EA00840A08306A06031962
:100960000008031DCF2C0730E8006808003C03187E
:10097000FC2C660885006508840002308407680343
:10098000EA006A0884070008EB006508840002306A
:100990008407680884076B088000E803B52C6608A4
:1009A0008500650884000008E8006808003C03181A
:1009B000EF2C660885006508840002308407680310
:1009C000EA006A0884070008EB006508840002302A
:1009D0008407680884076B088000E803D52C660844
:1009E0008500650884000008EA00840AEA0A031901
:1009F000800A84036A088000660885006508840010
:100A000002308407670880000130E9000800EE0129
:100A1000EF01EE1908005F1C0F2D5E08EF07DF0CD9
:100A20000310DE0DEE0A092DE801EB01EC0162086E
:100A3000E9006308EA00E51F232DE817E409E5094A
:100A4000E40A0319E50A681A352D641C2D2D69087E
:100A5000EB076A0803186A0FEC070310E50CE40CB7
:100A60000310E90DEA0DE80A232DE81F0800EB0941
:100A7000EC09EB0A0319EC0A08002000911091120E
:100A800021009110911623001F129F159F101F1017
:100A90001E139E121E129E111E111E109D171D1355
:100AA0009D161D169C011F309B0008005B08DD0091
:100AB0005C08DE00DF011130E00032245C088500B4
:100AC0005B0A8400840AB830DD00013080008403B2
:100AD0005D088000840303308407840A8030DD00D1
:100AE000800184035D0880005B08E6005C08E70085
:100AF000C9210800DF080319852D5C08E5005D08A1
:100B0000E6005E08E7004A248C2D5C08E5005D08DD
:100B1000E6005E08E700A723FF30E100E200E30102
:100B2000E4015D0885005C0884000008E600840A92
:100B30006408803AE5000008803A6502031DA22D92
:100B4000660863020318DD2D610A0319B32D5D08E1
:100B500085005C088400023084076308840700086D
:100B600061020318C02D6108E2005D0885005C0881
:100B7000840002308407630884070008E100D92D4F
:100B8000620A0319CF2D5D0885005C0884000230DD
:100B9000840763088407000862020318D92D5D08E2
:100BA00085005C088400023084076308840700081D
:100BB000E200E30A0319E40A912D6008023A031DDA
:100BC000202E610A031DF32D0030E400A030E30065
:100BD000FF30E500FB230030E400B130E300FF30DC
:100BE000E500FB230800620A031D052E0030E40027
:100BF000A030E3006108E500FB230030E400B130E1
:100C0000E3006108E500FB23080061083106031DCD
:100C1000112E0030E400A030E3006208E500FB2361
:100C200008000030E400A030E3006108E500FB2389
:100C30000030E400B130E3006208E500FB23080067
:100C40000030E400A030E3006108E500FB23003041
:100C5000E400B130E3006108E500FB230800230055
:100C60009D1C342E1D121D167D087C06031D3B2E77
:100C70002100E001080000308500203084007D085C
:100C8000840700082100DC00FD0A3F30FD05F0303C
:100C90005C05DD005D08F03A031D752E5C08F83A2E
:100CA0000319652E023A0319652E013A0319652EC0
:100CB000073A0319652E0D3A0319682E023A0319F3
:100CC000682E013A0319682E2F2E5C08E0000800F8
:100CD000D6015C08FE005C08F23A031D722E023059
:100CE000FF002F2E0130FF002F2E80305C05DE002C
:100CF000DF01DE080319DF0ADF08031DA22ED6017B
:100D00005C08FE00F0305C05E1006108C03A0319A0
:100D10009C2E103A03199C2E703A03199F2E203AEC
:100D200003199F2E103A03199F2E203A03199F2E64
:100D3000503A03199F2E9F2E0130FF002F2E0230B4
:100D4000FF002F2EFE0803192F2E0030850078306B
:100D500084005608D60A84075C0880007F08560283
:100D6000031C2F2ED601F0307E05E1006108803A89
:100D70000319C62E103A0319C62E703A0319C62E4F
:100D8000503A0319C62E603A031D2F2E7E08E0004C
:100D900008005C03031D08005D08DE00DE35053039
:100DA0005E020318D52E0530DD005E08FA3C0318FC
:100DB000DB2EFA30DD000030E000A030DF005E08FE
:100DC000E100E2011E240030E000B130DF005E08E7
:100DD000E100E2011E2408005C08E400E301DF01F9
:100DE000E001E31BE003E101E31BE103E40DDF0DA0
:100DF000E00DE10DE40DDF0DE00DE10DE40DDF0D83
:100E0000E00DE10DE40DDF0DE00DE10DE40DDF0D72
:100E1000E00DE10DE40DDF0DE00DE10DE40DDF0D62
:100E2000E00DE10D8030E4057F305D05DE006408F3
:100E3000DE040030DE022030E200031C620FDF021D
:100E40000030E200031C620FE0020030E200031CED
:100E5000620FE1020315031D332F0315031D332F0A
:100E600003150319382FDE01DF01E001E101442FF2
:100E70000830FF390319442FDE35DF0DE00DE10D99
:100E80000318E117FF3E392FE2015E082200C90076
:100E900021005F082200CA00210060082200CB0068
:100EA000210061082200CC002100E11F652F2200F3
:100EB000C909CA09CB09CC09C90A0319CA0A031905
:100EC000CB0A0319CC0A2100E20AAA302200CD0085
:100ED0000230CE00CF01D001462059082100DE00AB
:100EE00022005A082100DF0022005B082100E000F8
:100EF00022005C082100E100621C892FDE09DF0965
:100F0000E009E109DE0A0319DF0A0319E00A0319FF
:100F1000E10A5E08FA005F08FB000030E400A03040
:100F2000E3002008E500FB230030E400B130E300DB
:100F30003108E500FB23080021005808003C031895
:100F4000A52FD80B08009D1408009D180800570A0B
:100F5000031DAD2FD70188319828EC011C08ED0046
:100F60001B08EC046C08FF3C2200A00021006D0867
:100F7000031C6D0A033C2200A100A201A301003062
:100F800085006030840021005708DE000630DF0055
:100F900007256F0884070230840700082200DE005E
:100FA000840A0008DF00E001E10184030F30DA0069
:100FB000DB01DC01DD01072063082100EA002200DB
:100FC00064082100EB00220065082100E9002200EE
:100FD00066082100E800220020082100EA0722001C
:100FE00021082100EB3D220022082100E93D2200DA
:100FF00023082100E83DE90CEB0CEA0CE90CEB0CB2
:10100000EA0CE90CEB0CEA0CE90CEB0CEA0C0030F6
:101010008500603084005708DE000630DF000725B9
:101020006F08840702308407840A6A08EC006B08A2
:10103000800084036C0880000030850060308400EC
:101040005708DE000630DF0007256F0884070430EC
:1010500084070008E000840A0008E10000308500F1
:10106000603084005708DE000630DF0007256F0877
:101070008407023084070008DC00840A6008DC0270
:101080006108003BDD005C08E2005D08E3005C08ED
:10109000E4005D08E50014256B08E6006C08E70035
:1010A0006608013C67088831031C582803199328F7
:1010B000E71F5B28932800308500603084005708C4
:1010C000DE000630DF00803107256F08E800680881
:1010D0008407023084070008E900840A0008EA0057
:1010E00000308500603084005708DE000630DF00E5
:1010F00007256F08840704308407840A6908EB0019
:101100006A08800084036B0880000030850060302E
:1011100084005708DE000630DF0007256F088407CB
:10112000840A01308000D70A043057020318D7011F
:1011300000308500603084005708DE000630DF0094
:10114000803107256F08840700089D000A30D80009
:1011500008007A3021009900DF308C00F5308E00D5
:10116000143023008C0005308E0022008C018E018B
:1011700080313D258B170B1700302100DC00A0309B
:10118000DB0056250030DC00B130DB0056250A308C
:10119000250093009A00920191012100111525006C
:1011A0009901980121001214200097019601213025
:1011B0009800D03021009E0001309D00D901DA0155
:1011C00001302000E7002100C201C301CC01CD01A4
:1011D0002100DC014208023C43088831C31BF3288C
:1011E0000318031DDC0A5C1CF72822008C16210062
:1011F0005C18FC2822008C1280319C272000E70814
:1012000088310319C229E70164306A026B080318A8
:101210000E29031D0E292100D901412901306B023D
:10122000031D14292C306A0203181A2901302100E9
:10123000D900412901306B02031D2029F4306A02D4
:101240000318262902302100D900412902306B02FF
:10125000031D2C29BC306A020318322902302100F8
:10126000D900412903306B02031D382984306A02FA
:1012700003183E2903302100D90041290430210000
:10128000D9005A0859060319C2295908003A031906
:101290005629013A03196329033A03196329013ACC
:1012A00003197829073A03199729C0290030E70064
:1012B000A030E6008031C9210030E700B130E600FF
:1012C000C9218831C0290030E700A030E600803114
:1012D000C9210030E700B130E600C921C201C301D5
:1012E000CC01CD01FC01FD01FA01FB018831C029CF
:1012F0000030E700A030E60020006A082100E80086
:1013000020006B082100E900EA018031F42100305F
:10131000E700B130E60020006A082100E800200064
:101320006B082100E900EA01F4218831C02900306E
:10133000E700A030E60020006A0E2100E8000F3030
:10134000E80520006B0E2100E900F039E8040F30B9
:10135000E905EA018031F4210030E700B130E60010
:1013600020006A0E2100E8000F30E80520006B0E17
:101370002100E900F039E8040F30E905EA01F42121
:101380005908DA0080312F266008DB005A08013A3C
:1013900088310319D529033A0319D529013A0319CC
:1013A0000E2A073A0319292A4E2A5B08803A0319A4
:1013B000E329103A0319F029203A0319FE29503A7B
:1013C0000319062A4E2A0030DD00C230DC007808FE
:1013D000DE00DF015A08E00080317A2588314E2A8C
:1013E0000030DD00C230DC007808DE007908DF0064
:1013F0005A08E00080317A2588314E2A7808DC00CE
:101400007908DD008031C92688314E2A7908DC0050
:101410007808DD008031EC2688314E2AF308031964
:101420004E2AF3010030E700A030E6007608E8001D
:101430007708E900EA018031F4210030E700B1309B
:10144000E6007608E8007708E900EA01F42188312F
:101450004E2AF30803194E2AF3010030E700A030AA
:10146000E600760EE8000F30E805770EE900F03967
:10147000E8040F30E905EA018031F4210030E7008B
:10148000B130E600760EE8000F30E805770EE9008F
:10149000F039E8040F30E905EA01F4212000E10801
:1014A000883103198C2AE1010230640265080318AF
:1014B000642A031D642A00302100E700A030E60002
:1014C0008031C92188318C2A6508033C031D6A2AB2
:1014D0006408FC3C0318782A00302100E000A030AA
:1014E000DF00FF30E100E20180311E2488318C2AC8
:1014F00000302100E000A030DF002000640821005F
:10150000E1002000650C2100E200E10CE20CE10C9E
:101510003F30E20580311E242000ED088831031998
:10152000E828ED010230700271080318A22A031D99
:10153000A22A00302100E700B130E6008031C92145
:101540008831E8286508033C031DA82A6408FC3C90
:101550000318B62A00302100E000B130DF00FF3070
:10156000E100E20180311E248831E82800302100AA
:10157000E000B130DF007008E100710CE200E10C26
:10158000E20CE10C3F30E20580311E248831E8286E
:10159000FC01FD01FE01FF012100D6010930200000
:1015A000E0000D30E6001130EC001930F200FF30A1
:1015B0002100D700D801FA01FB018831A9282000B9
:1015C000111D2A2B2100A508031DFE2AA808031DB2
:1015D000EC2AA9080319F62A22008E1421002808F3
:1015E000A6072908A73D0130A500142B22008E1064
:1015F00021002A08A6072B08A73D142BAA08031DC3
:10160000042BAB0803190D2B22008E1021002A0891
:10161000A6072B08A73DA501142B22008E1421003C
:101620002808A6072908A73D2708250092002100C1
:101630002608250091002100AC080319282B2D084D
:10164000A8002E08A9002F08AA003008AB00AC01A2
:1016500020001111121C742B2100B608031D482B09
:10166000B908031D362BBA080319402B22008E152A
:1016700021003908B7073A08B83D0130B6005E2BA3
:1016800022008E1121003B08B7073C08B83D5E2BB5
:10169000BB08031D4E2BBC080319572B22008E11CB
:1016A00021003B08B7073C08B83DB6015E2B22007D
:1016B0008E1521003908B7073A08B83D38082500CB
:1016C000990021003708250098002100BD08031962
:1016D000722B3E08B9003F08BA004008BB00410821
:1016E000BC00BD0120001210911E09002300190842
:1016F0002200E7007C0AE8003F30E8057D08680624
:1017000003198C2B00308500203084007C0884076E
:0E171000670880006808FC00200091120900A4
:020000040001F9
:02000E00A4FF4D
:02001000FFDE11
:00000001FF
