:020000040000FA
:040000008831FD2B1B
:040008008831182CF7
:02000E00D2011D
:100010002300A001A101A201A3012200EA1F1C28C4
:10002000D217E909EA09EB09EC09E90A0319EA0A16
:100030000319EB0A0319EC0AD21A4B28691C3E2853
:1000400065082300A00722006608031C2A28660F03
:100050002A282C282300A10722006708031C332824
:10006000670F332835282300A20722006808031CE5
:100070003C28680F3C283E282300A30703102200D9
:10008000EC0CEB0CEA0CE90C0310E50DE60DE70DAA
:10009000E80DD20A1C28D21F08002300A009A109DC
:1000A000A209A309A00A0319A10A0319A20A0319A4
:1000B000A30A0800DE01DF01E001E101E401E5013E
:1000C000E601E701E20120306205E300E308031DD9
:1000D0000800E435E50DE60DE70DD50DD60DD70D7D
:1000E000D80DDE0DDF0DE00DE10D5C086102031D92
:1000F00083285B086002031D83285A085F02031DE2
:10010000832859085E02031C94285908DE025A0805
:10011000031C5A0FDF025B08031C5B0FE0025C0844
:10012000031C5C0FE1026414E20A632827088500BF
:10013000260A84000008D900840AAC014030D500AA
:100140004230D6000F30D7000030D8000008DA0067
:10015000DB01801BDB03DC01801BDC03801FBC2870
:10016000D909DA09DB09DC09D90A0319DA0A031902
:10017000DB0A0319DC0AAC0A5A206408A8006508E7
:10018000A9006608AA006708AB002C1CD228A809A1
:10019000A909AA09AB09A80A0319A90A0319AA0AF5
:1001A0000319AB0A27088500260884000C30840751
:1001B0008008031DD2282708850026088400033004
:1001C00084070008AD00840A0008803AAC00803043
:1001D0002C02031DED28FA302D02031C09292708E3
:1001E0008500260884000D308407840A2808AC00A6
:1001F0002908800084032C088000260884000F3022
:100200008407840A0030AC00800184032C0880003D
:100210005F2927088500260884000330840700082A
:10022000E900840A2808E5002908E6002A08E70012
:100230002B08E8000008EA00EB01801BEB03EC014F
:10024000801BEC030720230020082200AC002300C1
:1002500021082200B000230022082200AF00230062
:1002600023082200AD0027088500260884000D30F1
:100270008407840A2F088000840330088000260841
:1002800084000D3084070008AC00840A0008AD002B
:10029000AE01AF012C082802B2002908B1002D08D8
:1002A000031C2D0FB10227088500260884000F309B
:1002B0008407840A310880008403320880002708FC
:1002C0008500260884000C30840701308000080077
:1002D000D501D601D701D801CF01D001D101D2017A
:1002E000D30120305305D400D408031D0800CF35B6
:1002F000D00DD10DD20DC60DC70DC80DC90DD50D30
:10030000D60DD70DD80D4D085802031D91294C0864
:100310005702031D91294B085602031D91294A08D3
:100320005502031CA2294A08D5024B08031C4B0F97
:10033000D6024C08031C4C0FD7024D08031C4D0F6E
:10034000D8024F14D30A7129D2012300A001A101C0
:10035000A201A3012200D21A0800611CCD295D0868
:100360002300A00722005E08031CB9295E0FB929EB
:10037000BB292300A10722005F08031CC2295F0FCD
:10038000C229C4292300A20722006008031CCB292C
:10039000600FCB29CD292300A30703102200E40C12
:1003A000E30CE20CE10C0310DD0DDE0DDF0DE00DC2
:1003B000D20AAA2923088500220884000C30840769
:1003C0008008031DDA2923088500220884000D30E7
:1003D0008407840A0030A40080018403240880007C
:1003E000220884000F308407840AE830A400033018
:1003F0008000840324088000220884000C308407D5
:1004000001308000080023088500220A8400840A45
:100410002408A600250880008403260880002208FE
:10042000A6002308A700962008001030AD00113068
:10043000AF001230B1001330B3001430B5001530E6
:10044000B7001730B9001830BB001930BD001B30A1
:10045000BF001D30C1001E30C3002030B800233063
:10046000C0005330AE005A30AC005B30B000723088
:10047000B2008030BA00BE009A30B400D430B6006A
:10048000DE30C200F530BC002908003C031D522AB2
:100490002808003C031D522A2708003C031D522A4D
:1004A0002608773CA91B03140318682A0C30A602FF
:1004B0000030CF00031C4F0FA7020030CF00031CF9
:1004C0004F0FA8020030CF00031C4F0FA902442A8F
:1004D0000315031D712A0315031D712A0315031942
:1004E000762AA601A701A801A901822A0830FF39AE
:1004F0000319822AA635A70DA80DA90D0318A9175F
:10050000FF3E772A2A08CF002B08D000D101D20164
:10051000AB1F8C2AD103D2034F08A6075008A73D72
:100520005108A83D5208A93D2608CF0000302705F4
:10053000D0004F08AA005008AB0000300038003847
:10054000FF390319B12A290DA601A701A801A901A4
:100550000318A6030318A7030318A8030318A90385
:10056000B42A0830CF00CF080319BD2A290DA90CE1
:10057000A80CA70CA60CCF03B42A013085002C30A0
:1005800084002608C6002708C7002808C8002908D4
:10059000C900A91FD62AC609C709C809C909C60AB8
:1005A0000319C70A0319C80A0319C90A0C30CA007B
:1005B000CB01CC01CD0168215508CE00A91FE22A4C
:1005C000CE09CE0A03104E0D84070008C400840A29
:1005D0000008C500DD012608D5002708D600280838
:1005E000D7002908D800A91F012BD509D609D7099A
:1005F000D809D50A0319D60A0319D70A0319D80A44
:10060000DD0A0C30D900DA01DB01DC015A20640874
:10061000D1006508D2006608D3006708D4005D1CCD
:100620001C2BD109D209D309D409D10A0319D20A42
:100630000319D30A0319D40A5108093CD000003029
:10064000CF005208031C520FCF02CF080319302BE2
:10065000450DC401C5010318C4030318C503382B95
:10066000D0080319382B450DC50CC40CD003312B11
:100670004408DD004508DE00DF01E001C51F422B14
:10068000DF03E003F430E100E201E301E401A4212F
:10069000230020082200E500230021082200E600B4
:1006A000230022082200E700230023082200E8009C
:1006B0002A08E9002B08EA00EB01AB1BEB03EC0175
:1006C000AB1BEC030720230020082200D5002300E9
:1006D00021082200D600230022082200D700230090
:1006E00023082200D100D2015108D800D11F842B49
:1006F000D509D609D709D809D50A0319D60A031985
:10070000D70A0319D80AD20A0030D900DA00DC006F
:100710001030DB005A206408CF006508D000521C5E
:10072000962BCF09D009CF0A0319D00A4F08C40766
:100730005008C53D4408CF004508D0000800ED0131
:100740006B0885006A0884000008EE00840A6E08C1
:100750006D0200080318031D801BF12B6B08850038
:100760006A088400023084076D0884076C0800065C
:10077000031DEF2B6B0885006A0884000008EE005B
:10078000840AEE0803198003EE0384036E088000D8
:100790006B0885006A0884000008EE00840A6E0871
:1007A0006D0200080318031D801BEC2B6B088500ED
:1007B0006A088400023084076D0AEE006E08840720
:1007C0000008EF006A088400023084076D0884077F
:1007D0006F088000ED0AC82B0130EE000800ED0A1A
:1007E000A02BEE0108006F0A031DFD2B220020083C
:1007F000A2002108A300DA21132C22002008A20065
:100800002108A30021006F082200A600A701A8016B
:10081000A9017A08AA007B08AB0015224F08A400A2
:100820005008A5000322210885002008840021002B
:100830006F088000080066088500650884000330A2
:100840008407840A6708E90068088000840369084F
:10085000800065082200A600210066082200A7008B
:10086000962008006108E5006208E6006408003C84
:100870000318452C6608850065088400E50A0319FD
:10088000E60A63088000E403362C6108E70062088A
:10089000E80008006B0885006A0884000008EE0084
:1008A000840A6E08003C00080318031D801B642C9A
:1008B0006B0885006A0884000230840700086C0613
:1008C000031D642CEE010800ED016B0885006A0829
:1008D00084000008EF00840A6F086D020008031806
:1008E000031D801BAA2C6B0885006A088400023057
:1008F00084076D0884076C080006031DA82C6D088A
:10090000003C03189D2C6B0885006A0884000230A7
:1009100084076D03EF006F08840700082200A00021
:1009200021006A088400023084076D0884072200D1
:10093000200880002100ED037F2C6B0885006A08E9
:100940008400023084076C0880000130EE0008004B
:10095000ED0A652C6B0885006A0884000008EF002A
:10096000840A08306F0603190008031DD72C0730CE
:10097000ED006D08003C0318082D6B0885006A081F
:100980008400023084076D03EF006F0884070008BD
:100990002200A00021006A088400023084076D084C
:1009A00084072200200880002100ED03B92C6B0889
:1009B00085006A0884000008ED006D08003C0318FB
:1009C000FB2C6B0885006A088400023084076D03E5
:1009D000EF006F08840700082200A00021006A08C9
:1009E0008400023084076D088407220020088000FC
:1009F0002100ED03DD2C6B0885006A0884000008E7
:100A0000EF00840AEF0A0319800A84036F0880004C
:100A10006B0885006A088400023084076C08800037
:100A20000130EE0008002200A701A801A719080064
:100A30002100641C1E2D63082200A8072100E40C7D
:100A40000310E30D2200A70A162DED012200A001DC
:100A5000A10121006708EE006808EF00EA1F362DAB
:100A6000ED17E909EA09E90A0319EA0A6D1A4F2D97
:100A7000691C462D6E082200A00721006F08031C88
:100A8000442D6F0F442D462D2200A1070310210095
:100A9000EA0CE90C0310EE0DEF0DED0A362DED1FFB
:100AA00008002200A009A109A00A0319A10A080050
:100AB0002100E101E2010230200064026508031810
:100AC000672D031D672D2100E101E201842D6508DA
:100AD000033C031D6D2D6408FC3C0318742DFF308E
:100AE0002100E100E201842D64082100E5002000DE
:100AF000650C2100E600E50CE60CE50C3F30E60550
:100B00006508E1006608E200E301E40102307002DA
:100B100071080318902D031D902DE301E401A92D08
:100B20007108033C031D962D7008FC3C03189C2D96
:100B3000FF30E300E401A92D7008E500710CE60028
:100B4000E50CE60CE50C3F30E6056508E3006608B9
:100B5000E4006108E7006208E8007C08E9007D081D
:100B6000EA002525220020082100E10022002108BA
:100B70002100E200620DE20CE10C620DE20CE10CDE
:100B8000620DE20CE10C620DE20CE10C620DE20C74
:100B9000E10C620DE20CE10C620DE20CE10CE108EB
:100BA000031DD62DE208031DD62DD92D200A031DC5
:100BB000E02D00302200A300A030A200DA21E92DB0
:100BC0000030E600A030E5006108E7006208E800B8
:100BD0001B2421006308E7006408E8007C08E900A2
:100BE0007D08EA002525220020082100E3002200DC
:100BF00021082100E400640DE40CE30C640DE40C16
:100C0000E30C640DE40CE30C640DE40CE30C640DE4
:100C1000E40CE30C640DE40CE30C640DE40CE30C55
:100C2000E308031D172EE408031D172E1A2E310AA0
:100C3000031D212E00302200A300B130A200DA21D2
:100C400008000030E600B130E5006308E700640802
:100C5000E8001B240800200091109112210091103F
:100C6000911623001F129F159F101F101E139E1216
:100C70001E129E111E111E109D171D139D161D166E
:100C80009C011F309B0008005F08E1006008E20043
:100C9000E3011130E4003224600885005F0884001D
:100CA000FF308000840A840AB830E10001308000FF
:100CB000840361088000840303308407840A803041
:100CC000E10080018403610880005F082200A20027
:100CD000210060082200A300DA210800E4080319BB
:100CE000792E6108EA006208EB006308EC004A24F0
:100CF000802E6108EA006208EB006308EC009F2385
:100D0000FF30E600E700E801E901620885006108BC
:100D100084000008EB00840A6908803AEA000008B1
:100D2000803A6A02031D962E6B0868020318D12EC2
:100D3000660A0319A72E6208850061088400023044
:100D4000840768088407000866020318B42E660842
:100D5000E7006208850061088400023084076808A3
:100D600084070008E600CD2E670A0319C32E620827
:100D70008500610884000230840768088407000841
:100D800067020318CD2E62088500610884000230D6
:100D90008407680884070008E700E80A0319E90ADD
:100DA000852E6508023A031D222F660A031DEB2ECD
:100DB00000302200A100A030A000FF302100EF0091
:100DC000F32300302200A100B130A000FF30210049
:100DD000EF00F3230800670A031D012F00302200F3
:100DE000A100A030A00021006608EF00F32300302E
:100DF0002200A100B130A00021006608EF00F3231B
:100E0000080066083106031D0F2F00302200A100E4
:100E1000A030A00021006708EF00F3230800003095
:100E20002200A100A030A00021006608EF00F323FB
:100E300000302200A100B130A00021006708EF00BF
:100E4000F323080000302200A100A030A000210000
:100E50006608EF00F32300302200A100B130A000AB
:100E600021006608EF00F323080023009D1C3A2FA1
:100E70001D121D167F087E06031D412F2100E5016E
:100E8000080000308500203084007F0884070008B7
:100E90002100E100FF0A3F30FF05F0306105E2006C
:100EA0006208F03A031D7B2F6108F83A03196B2F93
:100EB000023A03196B2F013A03196B2F073A0319F2
:100EC0006B2F0D3A03196E2F023A03196E2F013A58
:100ED00003196E2F352F6108E5000800D80161085D
:100EE000D6006108F23A031D782F0230D700352F63
:100EF0000130D700352F80306105E300E401E308BD
:100F00000319E40AE408031DA82FD8016108D600DC
:100F1000F0306105E6006608C03A0319A22F103AC6
:100F20000319A22F703A0319A52F203A0319A52FF0
:100F3000103A0319A52F203A0319A52F503A031987
:100F4000A52FA52F0130D700352F0230D700352F20
:100F5000D6080319352F00308500783084005808F2
:100F6000D80A84076108800057085802031C352FEF
:100F7000D801F0305605E6006608803A0319CC2FF8
:100F8000103A0319CC2F703A0319CC2F503A031999
:100F9000CC2F603A031D352F5608E5000800610389
:100FA000031D080062087F3CFC007F30FC05FD014A
:100FB0000130DB000800E3010C30E400E501E6014C
:100FC0006108EF002200A1012100E801E9012200EF
:100FD000A11FEC2F2100E9032100EA012200A11F3B
:100FE000F32F2100EA032100EF0DE80DE90DEA0DD2
:100FF000EF0DE80DE90DEA0DEF0DE80DE90DEA0D35
:10100000EF0DE80DE90DEA0DEF0DE80DE90DEA0D24
:10101000EF0DE80DE90DEA0DEF0DE80DE90DEA0D14
:101020008030EF057F306205E7006F08E70400308D
:10103000E7022030EF00031C6F0FE8020030EF00E2
:10104000031C6F0FE9020030EF00031C6F0FEA0270
:1010500003158831031D32280315031D322803159B
:1010600003193728E701E801E901EA0143280830BC
:10107000FF3903194328E735E80DE90DEA0D031898
:10108000EA17FF3E3828EF0167082200D50021004B
:1010900068082200D600210069082200D70021003C
:1010A0006A082200D8002100EA1F64282200D5091E
:1010B000D609D709D809D50A0319D60A0319D70AB8
:1010C0000319D80A2100EF0AAA302200D900023001
:1010D000DA00DB01DC0180315A2064082100E700DE
:1010E000220065082100E800220066082100E900CE
:1010F000220067082100EA0088316F1C8A28E7096E
:10110000E809E909EA09E70A0319E80A0319E90AFB
:101110000319EA0A6309EB006409EC006509ED00B4
:101120006609EE00EB0F9928EC0F9928ED0F99282E
:10113000EE0A6A08803AEF006E08803A6F02031DDB
:10114000AB286D086902031DAB286C086802031DFB
:10115000AB286B0867020318D2286309EF00640903
:101160002200A000210065092200A10021006609DB
:101170002200A2002100EF0FC3282200A00FC328E5
:10118000A10FC328A20A21006F08E700220020084F
:101190002100E800220021082100E90022002208A5
:1011A0002100EA006608803AEF006A08803A6F0280
:1011B000031DE42869086502031DE4286808640229
:1011C000031DE428670863020318EE286308E7009C
:1011D0006408E8006508E9006608EA006708FA00A4
:1011E0006808FB0000302200A100A030A000210010
:1011F0002008EF008031F32300302200A100B1303D
:10120000A00021003108EF00F323080021005A0854
:10121000003C03180F29DA0B08009D1408009D18E4
:101220000800590A031D1629D901162AEF011C08C6
:101230002200A20021001B08EF046F08FF3C2200DF
:10124000A3002208031C220A033CA400A501A60156
:10125000003085006030840021005908E30006302A
:10126000E400803113252808840702308407000831
:10127000E900840A0008EA00EB01EC0184030F3066
:10128000E500E601E701E80107202300200822002D
:10129000A000230021082200A10023002208210031
:1012A000EE00230023082100ED0022002308A00700
:1012B0002408A13D25082100EE3D2200260821003A
:1012C000ED3DEE0C2200A10CA00C2100EE0C220042
:1012D000A10CA00C2100EE0C2200A10CA00C2100FE
:1012E000EE0C2200A10CA00C0030850060308400C0
:1012F00021005908E3000630E4001325280884077C
:1013000002308407840A20082100EF00220021080F
:101310008000840321006F08800000308500603069
:1013200084005908E3000630E400132528088407E8
:101330000430840700082100E500840A0008E60064
:1013400000308500603084005908E3000630E40076
:101350001325280884070230840700082100E100D3
:10136000840A6508E1026608003BE2006108E700C4
:101370006208E8006108E9006208EA002525220009
:1013800020082100EB00220021082100EC006B085E
:10139000013C6C088831031CCF290319102AEC1F6B
:1013A000D229102A00308500603084005908E300FB
:1013B0000630E4008031132528082100ED006D0877
:1013C0008407023084070008EE00840A0008EF005A
:1013D00000308500603084005908E3000630E400E6
:1013E00013252808840704308407840A21006E0826
:1013F0002200A00021006F08800084032200200842
:101400008000003085006030840021005908E3002E
:101410000630E400132528088407840A0130800080
:101420002100D90A043059020318D901003085007F
:10143000603084005908E3000630E4008031132551
:1014400028088407000821009D000A30DA000800FF
:101450007A3021009900DF308C00F5308E00143096
:1014600023008C0005308E0022008C018E0180311B
:101470002B268B170B1700302100E000A030DF0077
:10148000442600302100E000B130DF0044260A305D
:10149000250093009A009201910121001115250069
:1014A0009901980121001214200097019601213022
:1014B0009800D03021009E0001309D00DC01DD014C
:1014C00001302000E7002100C201C301CC01CD01A1
:1014D000DE0188310621DE0888310319732ADE0B0C
:1014E000732A22008C122000E7080319532BE7010E
:1014F00064306A026B080318822A031D822A2100C5
:10150000DC01B52A01306B02031D882A2C306A02E7
:1015100003188E2A01302100DC00B52A01306B024D
:10152000031D942AF4306A0203189A2A023021001B
:10153000DC00B52A02306B02031DA02ABC306A020F
:101540000318A62A02302100DC00B52A03306B0202
:10155000031DAC2A84306A020318B22A033021002A
:10156000DC00B52A04302100DC005D085C060319AC
:10157000532B5C08003A0319CA2A013A0319DB2AE3
:10158000033A0319DB2A013A0319FA2A073A031925
:10159000202B502BFF30A000B10000302200A30010
:1015A000A030A2008031DA210030A300B130A200C7
:1015B000DA218831502BFF30A000B100003022002A
:1015C000A300A030A2008031DA210030A300B130A6
:1015D000A200DA212100C201C301CC01CD01FE012C
:1015E000FF01FA01FB017F30FC00FD010130DB004F
:1015F0008831502BA001B10100302200A300A0309F
:10160000A20020006A082200A40020006B0822002B
:10161000A500803103220030A300B130A2002000D9
:101620006A082200A40020006B082200A500032203
:101630007F30FC00FD0101302100DB008831502BA0
:10164000A001B10100302200A300A030A2002000C0
:101650006A0E2200A4000F30A40520006B0E2200A9
:10166000A500F039A4040F30A50580310322003015
:10167000A300B130A20020006A0E2200A4000F30A7
:10168000A40520006B0E2200A500F039A4040F3041
:10169000A50503227F30FC00FD0101302100DB00A5
:1016A00021005C08DD00803135276508DF005D081A
:1016B000013A88310319662B033A0319662B013A64
:1016C0000319AA2B073A0319C42BE82BDF080319C7
:1016D0006E2B22008C1619302100DE00F0305F05E1
:1016E000E0006008803A03197F2B103A03198C2B15
:1016F000203A03199A2B503A0319A22BE82B0030F9
:10170000E200C230E1007808E300E4015D08E50092
:1017100080316E268831E82B0030E200C230E100D3
:101720007808E3007908E4005D08E50080316E2662
:101730008831E82B7808E1007908E2008031CF2772
:101740008831E82B7908E1007808E2008031DB2756
:101750008831E82BF3080319E82BF301003022004D
:10176000A300A030A2007608A4007708A50080316D
:1017700003220030A300B130A2007608A40077084D
:10178000A50003228831E82BF3080319E82BF301A5
:1017900000302200A300A030A200760EA4000F307B
:1017A000A405770EA500F039A4040F30A5058031FB
:1017B00003220030A300B130A200760EA4000F3047
:1017C000A405770EA500F039A4040F30A505032267
:1017D0002000E1088831031DF42BED08031DF42BD4
:1017E0002100DB080319692A803158252000E10116
:1017F000ED012100DB018831692AFE01FF01210092
:10180000D601D701D80109302000E0000D30E600F4
:101810001130EC001930F200FF302100D900DA015C
:10182000FA01FB017F30FC00FD01DB018831282A31
:101830002000111D632C2100A508031D372CA808CA
:10184000031D252CA90803192F2C22008E1421001A
:101850002808A6072908A73D0130A5004D2C220025
:101860008E1021002A08A6072B08A73D4D2CAA0898
:10187000031D3D2CAB080319462C22008E102100BD
:101880002A08A6072B08A73DA5014D2C22008E147F
:1018900021002808A6072908A73D2708250092004F
:1018A00021002608250091002100AC080319612CB5
:1018B0002D08A8002E08A9002F08AA003008AB00A8
:1018C000AC0120001111121CAD2C2100B608031D23
:1018D000812CB908031D6F2CBA080319792C22003A
:1018E0008E1521003908B7073A08B83D0130B60017
:1018F000972C22008E1121003B08B7073C08B83D09
:10190000972CBB08031D872CBC080319902C2200C0
:101910008E1121003B08B7073C08B83DB601972C53
:1019200022008E1521003908B7073A08B83D38085B
:101930002500990021003708250098002100BD08E6
:101940000319AB2C3E08B9003F08BA004008BB00A1
:101950004108BC00BD0120001210911E09002300A7
:1019600019082200ED007E0AEE003F30EE057F08E8
:101970006E060319C52C00308500203084007E08D7
:1019800084076D0880006E08FE0020009112090097
:020000040001F9
:02000E00A4FF4D
:02001000FFDE11
:00000001FF
