:020000040000FA
:02000000492E87
:040008008031602EB5
:02000E00E60109
:10001000E701E801E901EA01DF1F1A28E617DE0916
:10002000DF09E009E109DE0A0319DF0A0319E00A22
:100030000319E10AE61A38285E1C2C285A08E7073B
:100040005B0803185B0FE8075C0803185C0FE907FF
:100050005D0803185D0FEA070310E10CE00CDF0CEC
:10006000DE0C0310DA0DDB0DDC0DDD0DE60A1A28BF
:10007000E61F0800E709E809E909EA09E70A0319A0
:10008000E80A0319E90A0319EA0A0800D601D701A8
:10009000D801D901DC01DD01DE01DF01DA01203008
:1000A0005A05DB00DB08031D0800DC35DD0DDE0D25
:1000B000DF0DCD0DCE0DCF0DD00DD60DD70DD80D3A
:1000C000D90D54085902031D6F2853085802031D07
:1000D0006F2852085702031D6F2851085602031C4F
:1000E00080285108D6025208031C520FD702530829
:1000F000031C530FD8025408031C540FD9025C147C
:10010000DA0A4F2848088500470884000008D10013
:10011000840AD5014030CD004230CE000F30CF00F0
:100120000030D0000008D200D301801BD303D401DB
:10013000801BD403801FA828D109D209D309D40970
:10014000D10A0319D20A0319D30A0319D40AD50A0A
:1001500046205C08C9005D08CA005E08CB005F0845
:10016000CC00551CBE28C909CA09CB09CC09C90A4B
:100170000319CA0A0319CB0A0319CC0A48088500D7
:10018000470884000B3084078008031DBE284808F8
:10019000850047088400023084070008D600840ADE
:1001A0000008803AD50080305502031DD928FA3066
:1001B0005602031CF52848088500470884000C30C7
:1001C0008407840A4908D5004A088000840355083A
:1001D0008000470884000E308407840A0030D50070
:1001E000800184035508800043294808850047089A
:1001F0008400023084070008DE00840A4908DA001F
:100200004A08DB004B08DC004C08DD000008DF007A
:10021000E001801BE003E101801BE1030720670888
:10022000D5006808D9006908D8006A08D6004808CF
:100230008500470884000C308407840A5808800031
:10024000840359088000470884000C3084070008A4
:10025000D500840A0008D600D701D8015508490204
:10026000DB004A08DA005608031C560FDA02480879
:100270008500470884000E308407840A5A088000ED
:1002800084035B08800048088500470884000B3021
:100290008407013080000800E701E401E50108302F
:1002A0006505E600E608031D0800E435E00DE70DEE
:1002B00061086702031C5E29E7006414E50A4F2900
:1002C000E701EA01E80108306805E900E908031DD3
:1002D0000800EA35E50DE70D66086702031C722980
:1002E000E7006A14E80A6329C401320844023308AB
:1002F0000318031DB31BA929003085007830840042
:100300004408840743080006031DA729B208031DFB
:100310008A29B303B2033208440233080318031DC9
:10032000B31BA4290030850078308400440AC5003E
:10033000450884070008C600783084004408840714
:1003400046088000C40A8B290130C5000800C40A91
:100350007529C501080044088500430884000B3056
:1003600084078008031DAB294408850043088400E6
:100370000C308407840A0030C500800184034508DE
:100380008000430884000E308407840AE830C500EA
:1003900003308000840345088000430884000B304C
:1003A0008407013080000800440885004308840069
:1003B000840A4508C7004608800084034708800077
:1003C0004308C7004408C800822008003F08C30053
:1003D0004008C4004208003C0318F929440885007D
:1003E00043088400C30A0319C40A41088000C203F9
:1003F000EA293F08C5004008C60008001030C900BF
:100400001130CB001230CD001330CF001430D100AA
:100410001530D3001730D5001830D7001930D90067
:100420001B30DB001D30DD001E30DF002030D4002B
:100430002330DC005330CA005A30C8005B30CC0097
:100440007230CE008030D600DA009A30D000D4303E
:10045000D200DE30DE00F530D8004708773C0318C4
:10046000342A0C30C7022D2A00308500C8308400A1
:100470004708E0000C30E1004C216708E20003105F
:10048000620D84074708E5000C30E60060216A0829
:10049000E4006408093CE3000008E400840A000862
:1004A000E500E30803190800000DE50CE40CE30384
:1004B000522A3208003C33080318031DB31B6C2A70
:1004C0000030C6007830C5004308450603194608C9
:1004D000031D6C2AC7010800C40132084402330816
:1004E0000318031DB31B9B2A00308500783084005D
:1004F0004408840743080006031D992A4408003C69
:100500000318942A00308500783084004403C80022
:10051000480884070008C90078308400440884072C
:1005200049088000C4037E2A4308F8000130C70050
:100530000800C40A6D2A0830320603193308031D67
:10054000B92A0730C4004408003C0318D42A0030FC
:100550008500783084004403C800480884070008F8
:10056000C900783084004408840749088000C40327
:10057000A32A3208C4004408003C0318D12A0030E2
:100580008500783084004403C800480884070008C8
:10059000C900783084004408840749088000C403F7
:1005A000BB2AB20A0319B30A4308F8000130C70096
:1005B0000800E601E701E6190800401CE12A3F08AF
:1005C000E707C00C0310BF0DE60ADB2AC901CC0106
:1005D000CD014308CA004408CB00C61FF52AC9173D
:1005E000C509C609C50A0319C60A491A072B451CBD
:1005F000FF2A4A08CC074B0803184B0FCD070310FE
:10060000C60CC50C0310CA0DCB0DC90AF52AC91FAB
:100610000800CC09CD09CC0A0319CD0A0800200036
:100620009110911221009110911623001F129F1515
:100630009F101F101E139E121E129E111E111E10BF
:100640009D171D139D161D169C011F309B00080051
:100650003D08BF003E08C000C1011030C200E621C5
:100660003E0885003D088400840AB830BF00013090
:10067000800084033F08800002308407840A8030B1
:10068000BF00800184033F0880003D08C3003E088E
:10069000C400AB2108003E0885003D0884000230FC
:1006A0008407840A3F08C100400880008403410891
:1006B00080003D08C7003E08C80082200800C10134
:1006C000FF30C200C0080319692B3F08C30059223C
:1006D0006C2B3F08C3007421C1013208410233086A
:1006E0000318031DB31B8B2B420A0319812B003007
:1006F000850078308400410884070008420203180E
:10070000892B003085007830840041088407000878
:10071000C200C10A6D2B420A03199B2B0030C40092
:10072000A030C3004208C700FE216408C500650868
:10073000C600D42108000030C400A030C300AB21A3
:10074000080023009D1CA62B1D121D162100350834
:100750003406031DAD2BC301080000308500203096
:100760008400350884070008BF00B50A3F30B5058E
:10077000F0303F05C0004008F03A031DE62B3F086B
:10078000F83A0319D62B023A0319D62B013A03196A
:10079000D62B073A0319D62B0D3A0319D92B023A57
:1007A0000319D92B013A0319D92BA12B3F08C300F8
:1007B0000800B8013F08B6003F08F23A031DE32BDA
:1007C0000230B700A12B0130B700A12B80303F05CC
:1007D000C100C201C1080319C20AC208031D132CBB
:1007E000B8013F08B600F0303F05C4004408C03AE5
:1007F00003190D2C103A03190D2C703A0319102C03
:10080000203A0319102C103A0319102C203A03191E
:10081000102C503A0319102C102C0130B700A12BCA
:100820000230B700A12BB6080319A12B00308500B8
:10083000B03084003808B80A84073F0880003708C1
:100840003802031CA12BB801F0303605C40044085F
:10085000803A0319372C103A0319372C703A0319D0
:10086000372C503A0319372C603A031DA12B360858
:10087000C300080021003A08003C0318432CBA0BBF
:1008800008009D1408009D180800390A031D4A2C11
:10089000B9011F2DCD011C08CE001B08CD044D0849
:1008A000FF3CE2004E08031C4E0A033CE300E40157
:1008B000E50100308500603084003908BF00063053
:1008C000C000D92267088407023084070008DE00D0
:1008D000840A0008DF00E001E10184030F30DA0040
:1008E000DB01DC01DD0107206708CB006808CC00D4
:1008F0006908CA006A08C9006208CB076308CC3DD2
:100900006408CA3D6508C93DCA0CCC0CCB0CCA0CA6
:10091000CC0CCB0CCA0CCC0CCB0CCA0CCC0CCB0C1E
:1009200000308500603084003908BF000630C00008
:10093000D9226708840702308407840A4B08CD0057
:100940004C08800084034D08800000308500603032
:1009500084003908BF000630C000D9226708840728
:10096000043084070008C100840A0008C200003077
:100970008500603084003908BF000630C000D922ED
:1009800067088407023084070008BD00840A410814
:10099000BD024208003BBE003D08C3003E08C40043
:1009A0003D08C5003E08C600E6224C08C7004D08B9
:1009B000C8004708013C48080318031DC81B192D2F
:1009C00000308500603084003908BF000630C00068
:1009D000D9226708C9004908840702308407000843
:1009E000CA00840A0008CB00003085006030840013
:1009F0003908BF000630C000D922670884070430D8
:100A00008407840A4A08CC004B08800084034C0801
:100A1000800000308500603084003908BF00063057
:100A2000C000D92267088407840A013080002200B0
:100A30008C162100B90A043039020318B9010030BC
:100A40008500603084003908BF000630C000D9221C
:100A50006708840700089D000A30BA0008007A3051
:100A600021009900DF308C00F5308E001430230017
:100A70008C0005308E0020008C018E010F238B1717
:100A80000B1700302100BE00A030BD0028230A3023
:100A9000250093009201910121001115200097017A
:100AA000960121309800D03021009E0001309D0039
:100AB000BB01BC0122008C123A242000E708031974
:100AC000CA2DE70164306A026B0803186C2D031D00
:100AD0006C2D2100BB01872D01306B02031D722D8F
:100AE0002C306A020318782D01302100BB00872DBD
:100AF00001306B02031D7E2DF4306A020318842D31
:100B000002302100BB00872D03302100BB003C08D0
:100B10003B060319CA2D3B08003A0319992D013AE7
:100B200003199F2D033A0319A72D013A0319B52D77
:100B3000C82D0030C400A030C300AB21C82D003048
:100B4000C400A030C300AB21B401B501C82D0030F2
:100B5000C400A030C30020006A082100C5002000A6
:100B60006B082100C600D421C82D0030C400A0307D
:100B7000C30020006A0E2100C5000F30C50520000B
:100B80006B0E2100C600F039C5040F30C605D42114
:100B90003B08BC0021003C08013A0319D62D033A5A
:100BA0000319EF2D013A0319FD2D102EA12343083F
:100BB000BD00F0303D05BE003E08803A0319E42D2B
:100BC000103A0319E42DEC2D3008BF003108C000A5
:100BD0005F2322008C16102E22008C12102EF30898
:100BE0000319102EF3010030C400A030C3007608B2
:100BF000C5007708C600D421102EF3080319102E63
:100C0000F3010030C400A030C300760EC5000F30E1
:100C1000C505770EC600F039C5040F30C605D421CE
:100C20002000E10803195A2DE10102306402650831
:100C30000318232E031D232E00302100C400A030F2
:100C4000C300AB215A2D6508033C031D292E6408FF
:100C5000FC3C0318352E00302100BE00A030BD0042
:100C6000FF30BF00C0014B235A2D00302100BE00D1
:100C7000A030BD00200064082100BF002000650CEA
:100C80002100C000BF0CC00CBF0C3F30C0054B237F
:100C90005A2D2100B401B501B601B701B8010930E0
:100CA0002000E0000D30E6001130EC001930F200B9
:100CB000FF302100B900BA01B201B30180312F2DFC
:100CC0002000111DAB2E2100A408031D7F2EA708B4
:100CD000031D6D2EA8080319772E22008E15210002
:100CE0002708A5072808A63D0130A400952E22005C
:100CF0008E1121002908A5072A08A63D952EA908CE
:100D0000031D852EAA0803198E2E22008E112100A4
:100D10002908A5072A08A63DA401952E22008E15B4
:100D200021002708A5072808A63D260825009200CF
:100D300021002508250091002100AB080319A92EE8
:100D40002C08A7002D08A8002E08A9002F08AA002B
:100D5000AB0120001111911E090023001908210088
:100D6000EB00340AEC003F30EC0535086C06031943
:100D7000C32E0030850020308400340884076B08BF
:0C0D800080006C08B400200091120900F3
:020000040001F9
:02000E00A4FF4D
:02001000FFDE11
:00000001FF
